{
  "_format": "hh-sol-artifact-1",
  "contractName": "Token",
  "sourceName": "contracts/Token.sol",
  "abi": [
    {
      "inputs": [
        {
          "internalType": "string",
          "name": "_name",
          "type": "string"
        },
        {
          "internalType": "string",
          "name": "_symbol",
          "type": "string"
        },
        {
          "internalType": "uint256",
          "name": "_supply",
          "type": "uint256"
        }
      ],
      "stateMutability": "nonpayable",
      "type": "constructor"
    },
    {
      "anonymous": false,
      "inputs": [
        {
          "indexed": true,
          "internalType": "address",
          "name": "owner",
          "type": "address"
        },
        {
          "indexed": true,
          "internalType": "address",
          "name": "spender",
          "type": "address"
        },
        {
          "indexed": false,
          "internalType": "uint256",
          "name": "value",
          "type": "uint256"
        }
      ],
      "name": "Approval",
      "type": "event"
    },
    {
      "anonymous": false,
      "inputs": [
        {
          "indexed": true,
          "internalType": "address",
          "name": "sender",
          "type": "address"
        },
        {
          "indexed": true,
          "internalType": "address",
          "name": "receiver",
          "type": "address"
        },
        {
          "indexed": false,
          "internalType": "uint256",
          "name": "value",
          "type": "uint256"
        }
      ],
      "name": "Transfer",
      "type": "event"
    },
    {
      "inputs": [
        {
          "internalType": "address",
          "name": "",
          "type": "address"
        },
        {
          "internalType": "address",
          "name": "",
          "type": "address"
        }
      ],
      "name": "allowance",
      "outputs": [
        {
          "internalType": "uint256",
          "name": "",
          "type": "uint256"
        }
      ],
      "stateMutability": "view",
      "type": "function"
    },
    {
      "inputs": [
        {
          "internalType": "address",
          "name": "_owner",
          "type": "address"
        },
        {
          "internalType": "address",
          "name": "_spender",
          "type": "address"
        }
      ],
      "name": "allowanceOf",
      "outputs": [
        {
          "internalType": "uint256",
          "name": "",
          "type": "uint256"
        }
      ],
      "stateMutability": "view",
      "type": "function"
    },
    {
      "inputs": [
        {
          "internalType": "address",
          "name": "_spender",
          "type": "address"
        },
        {
          "internalType": "uint256",
          "name": "_value",
          "type": "uint256"
        }
      ],
      "name": "approve",
      "outputs": [
        {
          "internalType": "bool",
          "name": "",
          "type": "bool"
        }
      ],
      "stateMutability": "nonpayable",
      "type": "function"
    },
    {
      "inputs": [
        {
          "internalType": "address",
          "name": "",
          "type": "address"
        }
      ],
      "name": "balanceOf",
      "outputs": [
        {
          "internalType": "uint256",
          "name": "",
          "type": "uint256"
        }
      ],
      "stateMutability": "view",
      "type": "function"
    },
    {
      "inputs": [],
      "name": "decimals",
      "outputs": [
        {
          "internalType": "uint8",
          "name": "",
          "type": "uint8"
        }
      ],
      "stateMutability": "view",
      "type": "function"
    },
    {
      "inputs": [],
      "name": "name",
      "outputs": [
        {
          "internalType": "string",
          "name": "",
          "type": "string"
        }
      ],
      "stateMutability": "view",
      "type": "function"
    },
    {
      "inputs": [],
      "name": "symbol",
      "outputs": [
        {
          "internalType": "string",
          "name": "",
          "type": "string"
        }
      ],
      "stateMutability": "view",
      "type": "function"
    },
    {
      "inputs": [],
      "name": "totalSupply",
      "outputs": [
        {
          "internalType": "uint256",
          "name": "",
          "type": "uint256"
        }
      ],
      "stateMutability": "view",
      "type": "function"
    },
    {
      "inputs": [
        {
          "internalType": "address",
          "name": "_to",
          "type": "address"
        },
        {
          "internalType": "uint256",
          "name": "_value",
          "type": "uint256"
        }
      ],
      "name": "transfer",
      "outputs": [
        {
          "internalType": "bool",
          "name": "",
          "type": "bool"
        }
      ],
      "stateMutability": "nonpayable",
      "type": "function"
    },
    {
      "inputs": [
        {
          "internalType": "address",
          "name": "_from",
          "type": "address"
        },
        {
          "internalType": "address",
          "name": "_to",
          "type": "address"
        },
        {
          "internalType": "uint256",
          "name": "_value",
          "type": "uint256"
        }
      ],
      "name": "transferFrom",
      "outputs": [
        {
          "internalType": "bool",
          "name": "",
          "type": "bool"
        }
      ],
      "stateMutability": "nonpayable",
      "type": "function"
    }
  ],
  "bytecode": "0x60806040526012600260006101000a81548160ff021916908360ff1602179055503480156200002d57600080fd5b50604051620017f9380380620017f983398181016040528101906200005391906200032f565b82600090816200006491906200060a565b5081600190816200007691906200060a565b50600260009054906101000a900460ff16600a62000095919062000881565b81620000a29190620008d2565b600381905550600354600460003373ffffffffffffffffffffffffffffffffffffffff1673ffffffffffffffffffffffffffffffffffffffff168152602001908152602001600020819055503373ffffffffffffffffffffffffffffffffffffffff16600073ffffffffffffffffffffffffffffffffffffffff167fddf252ad1be2c89b69c2b068fc378daa952ba7f163c4a11628f55a4df523b3ef6003546040516200015091906200092e565b60405180910390a35050506200094b565b6000604051905090565b600080fd5b600080fd5b600080fd5b600080fd5b6000601f19601f8301169050919050565b7f4e487b7100000000000000000000000000000000000000000000000000000000600052604160045260246000fd5b620001ca826200017f565b810181811067ffffffffffffffff82111715620001ec57620001eb62000190565b5b80604052505050565b60006200020162000161565b90506200020f8282620001bf565b919050565b600067ffffffffffffffff82111562000232576200023162000190565b5b6200023d826200017f565b9050602081019050919050565b60005b838110156200026a5780820151818401526020810190506200024d565b60008484015250505050565b60006200028d620002878462000214565b620001f5565b905082815260208101848484011115620002ac57620002ab6200017a565b5b620002b98482856200024a565b509392505050565b600082601f830112620002d957620002d862000175565b5b8151620002eb84826020860162000276565b91505092915050565b6000819050919050565b6200030981620002f4565b81146200031557600080fd5b50565b6000815190506200032981620002fe565b92915050565b6000806000606084860312156200034b576200034a6200016b565b5b600084015167ffffffffffffffff8111156200036c576200036b62000170565b5b6200037a86828701620002c1565b935050602084015167ffffffffffffffff8111156200039e576200039d62000170565b5b620003ac86828701620002c1565b9250506040620003bf8682870162000318565b9150509250925092565b600081519050919050565b7f4e487b7100000000000000000000000000000000000000000000000000000000600052602260045260246000fd5b600060028204905060018216806200041c57607f821691505b602082108103620004325762000431620003d4565b5b50919050565b60008190508160005260206000209050919050565b60006020601f8301049050919050565b600082821b905092915050565b6000600883026200049c7fffffffffffffffffffffffffffffffffffffffffffffffffffffffffffffffff826200045d565b620004a886836200045d565b95508019841693508086168417925050509392505050565b6000819050919050565b6000620004eb620004e5620004df84620002f4565b620004c0565b620002f4565b9050919050565b6000819050919050565b6200050783620004ca565b6200051f6200051682620004f2565b8484546200046a565b825550505050565b600090565b6200053662000527565b62000543818484620004fc565b505050565b5b818110156200056b576200055f6000826200052c565b60018101905062000549565b5050565b601f821115620005ba57620005848162000438565b6200058f846200044d565b810160208510156200059f578190505b620005b7620005ae856200044d565b83018262000548565b50505b505050565b600082821c905092915050565b6000620005df60001984600802620005bf565b1980831691505092915050565b6000620005fa8383620005cc565b9150826002028217905092915050565b6200061582620003c9565b67ffffffffffffffff81111562000631576200063062000190565b5b6200063d825462000403565b6200064a8282856200056f565b600060209050601f8311600181146200068257600084156200066d578287015190505b620006798582620005ec565b865550620006e9565b601f198416620006928662000438565b60005b82811015620006bc5784890151825560018201915060208501945060208101905062000695565b86831015620006dc5784890151620006d8601f891682620005cc565b8355505b6001600288020188555050505b505050505050565b7f4e487b7100000000000000000000000000000000000000000000000000000000600052601160045260246000fd5b60008160011c9050919050565b6000808291508390505b60018511156200077f57808604811115620007575762000756620006f1565b5b6001851615620007675780820291505b8081029050620007778562000720565b945062000737565b94509492505050565b6000826200079a57600190506200086d565b81620007aa57600090506200086d565b8160018114620007c35760028114620007ce5762000804565b60019150506200086d565b60ff841115620007e357620007e2620006f1565b5b8360020a915084821115620007fd57620007fc620006f1565b5b506200086d565b5060208310610133831016604e8410600b84101617156200083e5782820a905083811115620008385762000837620006f1565b5b6200086d565b6200084d84848460016200072d565b92509050818404811115620008675762000866620006f1565b5b81810290505b9392505050565b600060ff82169050919050565b60006200088e82620002f4565b91506200089b8362000874565b9250620008ca7fffffffffffffffffffffffffffffffffffffffffffffffffffffffffffffffff848462000788565b905092915050565b6000620008df82620002f4565b9150620008ec83620002f4565b9250828202620008fc81620002f4565b91508282048414831517620009165762000915620006f1565b5b5092915050565b6200092881620002f4565b82525050565b60006020820190506200094560008301846200091d565b92915050565b610e9e806200095b6000396000f3fe608060405234801561001057600080fd5b506004361061009e5760003560e01c8063313ce56711610066578063313ce5671461016f57806370a082311461018d57806395d89b41146101bd578063a9059cbb146101db578063dd62ed3e1461020b5761009e565b806306fdde03146100a3578063095ea7b3146100c157806318160ddd146100f15780631a46ec821461010f57806323b872dd1461013f575b600080fd5b6100ab61023b565b6040516100b89190610a47565b60405180910390f35b6100db60048036038101906100d69190610b02565b6102c9565b6040516100e89190610b5d565b60405180910390f35b6100f96103bb565b6040516101069190610b87565b60405180910390f35b61012960048036038101906101249190610ba2565b6103c1565b6040516101369190610b87565b60405180910390f35b61015960048036038101906101549190610be2565b610448565b6040516101669190610b5d565b60405180910390f35b61017761073a565b6040516101849190610c51565b60405180910390f35b6101a760048036038101906101a29190610c6c565b61074d565b6040516101b49190610b87565b60405180910390f35b6101c5610765565b6040516101d29190610a47565b60405180910390f35b6101f560048036038101906101f09190610b02565b6107f3565b6040516102029190610b5d565b60405180910390f35b61022560048036038101906102209190610ba2565b610992565b6040516102329190610b87565b60405180910390f35b6000805461024890610cc8565b80601f016020809104026020016040519081016040528092919081815260200182805461027490610cc8565b80156102c15780601f10610296576101008083540402835291602001916102c1565b820191906000526020600020905b8154815290600101906020018083116102a457829003601f168201915b505050505081565b600081600560003373ffffffffffffffffffffffffffffffffffffffff1673ffffffffffffffffffffffffffffffffffffffff16815260200190815260200160002060008573ffffffffffffffffffffffffffffffffffffffff1673ffffffffffffffffffffffffffffffffffffffff168152602001908152602001600020819055508273ffffffffffffffffffffffffffffffffffffffff163373ffffffffffffffffffffffffffffffffffffffff167f8c5be1e5ebec7d5bd14f71427d1e84f3dd0314c0f7b2291e5b200ac8c7c3b925846040516103a99190610b87565b60405180910390a36001905092915050565b60035481565b6000600560008473ffffffffffffffffffffffffffffffffffffffff1673ffffffffffffffffffffffffffffffffffffffff16815260200190815260200160002060008373ffffffffffffffffffffffffffffffffffffffff1673ffffffffffffffffffffffffffffffffffffffff16815260200190815260200160002054905092915050565b600081600460008673ffffffffffffffffffffffffffffffffffffffff1673ffffffffffffffffffffffffffffffffffffffff1681526020019081526020016000205410156104cc576040517f08c379a00000000000000000000000000000000000000000000000000000000081526004016104c390610d45565b60405180910390fd5b81600560008673ffffffffffffffffffffffffffffffffffffffff1673ffffffffffffffffffffffffffffffffffffffff16815260200190815260200160002060003373ffffffffffffffffffffffffffffffffffffffff1673ffffffffffffffffffffffffffffffffffffffff16815260200190815260200160002054101561058b576040517f08c379a000000000000000000000000000000000000000000000000000000000815260040161058290610db1565b60405180910390fd5b81600460008673ffffffffffffffffffffffffffffffffffffffff1673ffffffffffffffffffffffffffffffffffffffff16815260200190815260200160002060008282546105da9190610e00565b9250508190555081600460008573ffffffffffffffffffffffffffffffffffffffff1673ffffffffffffffffffffffffffffffffffffffff16815260200190815260200160002060008282546106309190610e34565b9250508190555081600560008673ffffffffffffffffffffffffffffffffffffffff1673ffffffffffffffffffffffffffffffffffffffff16815260200190815260200160002060003373ffffffffffffffffffffffffffffffffffffffff1673ffffffffffffffffffffffffffffffffffffffff16815260200190815260200160002060008282546106c39190610e00565b925050819055508273ffffffffffffffffffffffffffffffffffffffff168473ffffffffffffffffffffffffffffffffffffffff167fddf252ad1be2c89b69c2b068fc378daa952ba7f163c4a11628f55a4df523b3ef846040516107279190610b87565b60405180910390a3600190509392505050565b600260009054906101000a900460ff1681565b60046020528060005260406000206000915090505481565b6001805461077290610cc8565b80601f016020809104026020016040519081016040528092919081815260200182805461079e90610cc8565b80156107eb5780601f106107c0576101008083540402835291602001916107eb565b820191906000526020600020905b8154815290600101906020018083116107ce57829003601f168201915b505050505081565b600081600460003373ffffffffffffffffffffffffffffffffffffffff1673ffffffffffffffffffffffffffffffffffffffff168152602001908152602001600020541015610877576040517f08c379a000000000000000000000000000000000000000000000000000000000815260040161086e90610d45565b60405180910390fd5b81600460003373ffffffffffffffffffffffffffffffffffffffff1673ffffffffffffffffffffffffffffffffffffffff16815260200190815260200160002060008282546108c69190610e00565b9250508190555081600460008573ffffffffffffffffffffffffffffffffffffffff1673ffffffffffffffffffffffffffffffffffffffff168152602001908152602001600020600082825461091c9190610e34565b925050819055508273ffffffffffffffffffffffffffffffffffffffff163373ffffffffffffffffffffffffffffffffffffffff167fddf252ad1be2c89b69c2b068fc378daa952ba7f163c4a11628f55a4df523b3ef846040516109809190610b87565b60405180910390a36001905092915050565b6005602052816000526040600020602052806000526040600020600091509150505481565b600081519050919050565b600082825260208201905092915050565b60005b838110156109f15780820151818401526020810190506109d6565b60008484015250505050565b6000601f19601f8301169050919050565b6000610a19826109b7565b610a2381856109c2565b9350610a338185602086016109d3565b610a3c816109fd565b840191505092915050565b60006020820190508181036000830152610a618184610a0e565b905092915050565b600080fd5b600073ffffffffffffffffffffffffffffffffffffffff82169050919050565b6000610a9982610a6e565b9050919050565b610aa981610a8e565b8114610ab457600080fd5b50565b600081359050610ac681610aa0565b92915050565b6000819050919050565b610adf81610acc565b8114610aea57600080fd5b50565b600081359050610afc81610ad6565b92915050565b60008060408385031215610b1957610b18610a69565b5b6000610b2785828601610ab7565b9250506020610b3885828601610aed565b9150509250929050565b60008115159050919050565b610b5781610b42565b82525050565b6000602082019050610b726000830184610b4e565b92915050565b610b8181610acc565b82525050565b6000602082019050610b9c6000830184610b78565b92915050565b60008060408385031215610bb957610bb8610a69565b5b6000610bc785828601610ab7565b9250506020610bd885828601610ab7565b9150509250929050565b600080600060608486031215610bfb57610bfa610a69565b5b6000610c0986828701610ab7565b9350506020610c1a86828701610ab7565b9250506040610c2b86828701610aed565b9150509250925092565b600060ff82169050919050565b610c4b81610c35565b82525050565b6000602082019050610c666000830184610c42565b92915050565b600060208284031215610c8257610c81610a69565b5b6000610c9084828501610ab7565b91505092915050565b7f4e487b7100000000000000000000000000000000000000000000000000000000600052602260045260246000fd5b60006002820490506001821680610ce057607f821691505b602082108103610cf357610cf2610c99565b5b50919050565b7f496e73756666696369656e742062616c616e6365000000000000000000000000600082015250565b6000610d2f6014836109c2565b9150610d3a82610cf9565b602082019050919050565b60006020820190508181036000830152610d5e81610d22565b9050919050565b7f4e6f7420656e6f75676820616c6c6f77616e6365000000000000000000000000600082015250565b6000610d9b6014836109c2565b9150610da682610d65565b602082019050919050565b60006020820190508181036000830152610dca81610d8e565b9050919050565b7f4e487b7100000000000000000000000000000000000000000000000000000000600052601160045260246000fd5b6000610e0b82610acc565b9150610e1683610acc565b9250828203905081811115610e2e57610e2d610dd1565b5b92915050565b6000610e3f82610acc565b9150610e4a83610acc565b9250828201905080821115610e6257610e61610dd1565b5b9291505056fea26469706673582212202ea6779d1876fbc4f8f1dc8949ab928fd91e3e60cd4ba0ae480994a69544451f64736f6c63430008140033",
  "linkReferences": {},
  "deployedLinkReferences": {}
}